{
  "contractName": "koi",
  "abi": [
    {
      "inputs": [],
      "stateMutability": "nonpayable",
      "type": "constructor"
    },
    {
      "inputs": [
        {
          "internalType": "address",
          "name": "",
          "type": "address"
        }
      ],
      "name": "accBalances",
      "outputs": [
        {
          "internalType": "uint256",
          "name": "",
          "type": "uint256"
        }
      ],
      "stateMutability": "view",
      "type": "function",
      "constant": true
    },
    {
      "inputs": [],
      "name": "amountItem",
      "outputs": [
        {
          "internalType": "uint256",
          "name": "",
          "type": "uint256"
        }
      ],
      "stateMutability": "view",
      "type": "function",
      "constant": true
    },
    {
      "inputs": [],
      "name": "itemSold",
      "outputs": [
        {
          "internalType": "uint256",
          "name": "",
          "type": "uint256"
        }
      ],
      "stateMutability": "view",
      "type": "function",
      "constant": true
    },
    {
      "inputs": [],
      "name": "limitedEditionSupply",
      "outputs": [
        {
          "internalType": "uint256",
          "name": "",
          "type": "uint256"
        }
      ],
      "stateMutability": "view",
      "type": "function",
      "constant": true
    },
    {
      "inputs": [],
      "name": "maxSupply",
      "outputs": [
        {
          "internalType": "uint256",
          "name": "",
          "type": "uint256"
        }
      ],
      "stateMutability": "view",
      "type": "function",
      "constant": true
    },
    {
      "inputs": [],
      "name": "mintRate",
      "outputs": [
        {
          "internalType": "uint256",
          "name": "",
          "type": "uint256"
        }
      ],
      "stateMutability": "view",
      "type": "function",
      "constant": true
    },
    {
      "inputs": [],
      "name": "owner",
      "outputs": [
        {
          "internalType": "address",
          "name": "",
          "type": "address"
        }
      ],
      "stateMutability": "view",
      "type": "function",
      "constant": true
    },
    {
      "inputs": [],
      "name": "initializeContract",
      "outputs": [],
      "stateMutability": "nonpayable",
      "type": "function"
    },
    {
      "inputs": [],
      "name": "getKoiBalance",
      "outputs": [
        {
          "internalType": "uint256",
          "name": "",
          "type": "uint256"
        }
      ],
      "stateMutability": "view",
      "type": "function",
      "constant": true
    },
    {
      "inputs": [
        {
          "internalType": "uint256",
          "name": "amount",
          "type": "uint256"
        }
      ],
      "name": "restock",
      "outputs": [],
      "stateMutability": "nonpayable",
      "type": "function"
    },
    {
      "inputs": [
        {
          "internalType": "uint256",
          "name": "amount",
          "type": "uint256"
        }
      ],
      "name": "purchase",
      "outputs": [],
      "stateMutability": "payable",
      "type": "function",
      "payable": true
    },
    {
      "inputs": [],
      "name": "getBalance",
      "outputs": [
        {
          "internalType": "uint256",
          "name": "",
          "type": "uint256"
        }
      ],
      "stateMutability": "view",
      "type": "function",
      "constant": true
    }
  ],
  "bytecode": "0x6080604052600060025560326003556000600455600a60055534801561002457600080fd5b5033600660006101000a81548173ffffffffffffffffffffffffffffffffffffffff021916908373ffffffffffffffffffffffffffffffffffffffff1602179055506005600760003073ffffffffffffffffffffffffffffffffffffffff1673ffffffffffffffffffffffffffffffffffffffff16815260200190815260200160002081905550610a6e806100ba6000396000f3fe6080604052600436106100a75760003560e01c80639eb32fdb116100645780639eb32fdb146101c0578063c21a702a146101d7578063ca0dcf1614610200578063d5abeb011461022b578063db2cc70614610256578063efef39a114610281576100a7565b806311142cb9146100ac57806312065fe0146100d7578063438e897a1461010257806381b352201461012d57806382658fa6146101585780638da5cb5b14610195575b600080fd5b3480156100b857600080fd5b506100c161029d565b6040516100ce9190610656565b60405180910390f35b3480156100e357600080fd5b506100ec6102e4565b6040516100f99190610656565b60405180910390f35b34801561010e57600080fd5b506101176102ec565b6040516101249190610656565b60405180910390f35b34801561013957600080fd5b506101426102f2565b60405161014f9190610656565b60405180910390f35b34801561016457600080fd5b5061017f600480360381019061017a91906106d4565b6102f8565b60405161018c9190610656565b60405180910390f35b3480156101a157600080fd5b506101aa610310565b6040516101b79190610710565b60405180910390f35b3480156101cc57600080fd5b506101d5610336565b005b3480156101e357600080fd5b506101fe60048036038101906101f99190610757565b6103be565b005b34801561020c57600080fd5b506102156104a7565b6040516102229190610656565b60405180910390f35b34801561023757600080fd5b506102406104ad565b60405161024d9190610656565b60405180910390f35b34801561026257600080fd5b5061026b6104b3565b6040516102789190610656565b60405180910390f35b61029b60048036038101906102969190610757565b6104b9565b005b6000600760003073ffffffffffffffffffffffffffffffffffffffff1673ffffffffffffffffffffffffffffffffffffffff16815260200190815260200160002054905090565b600047905090565b60015481565b60045481565b60076020528060005260406000206000915090505481565b600660009054906101000a900473ffffffffffffffffffffffffffffffffffffffff1681565b33600660006101000a81548173ffffffffffffffffffffffffffffffffffffffff021916908373ffffffffffffffffffffffffffffffffffffffff1602179055506005600760003073ffffffffffffffffffffffffffffffffffffffff1673ffffffffffffffffffffffffffffffffffffffff16815260200190815260200160002081905550565b600660009054906101000a900473ffffffffffffffffffffffffffffffffffffffff1673ffffffffffffffffffffffffffffffffffffffff163373ffffffffffffffffffffffffffffffffffffffff161461044e576040517f08c379a0000000000000000000000000000000000000000000000000000000008152600401610445906107e1565b60405180910390fd5b80600760003073ffffffffffffffffffffffffffffffffffffffff1673ffffffffffffffffffffffffffffffffffffffff168152602001908152602001600020600082825461049d9190610830565b9250508190555050565b60025481565b60035481565b60055481565b6402540be400816104ca9190610886565b34101561050c576040517f08c379a000000000000000000000000000000000000000000000000000000000815260040161050390610952565b60405180910390fd5b80600760003073ffffffffffffffffffffffffffffffffffffffff1673ffffffffffffffffffffffffffffffffffffffff16815260200190815260200160002054101561058e576040517f08c379a0000000000000000000000000000000000000000000000000000000008152600401610585906109e4565b60405180910390fd5b80600760003073ffffffffffffffffffffffffffffffffffffffff1673ffffffffffffffffffffffffffffffffffffffff16815260200190815260200160002060008282546105dd9190610a04565b9250508190555080600760003373ffffffffffffffffffffffffffffffffffffffff1673ffffffffffffffffffffffffffffffffffffffff16815260200190815260200160002060008282546106339190610830565b9250508190555050565b6000819050919050565b6106508161063d565b82525050565b600060208201905061066b6000830184610647565b92915050565b600080fd5b600073ffffffffffffffffffffffffffffffffffffffff82169050919050565b60006106a182610676565b9050919050565b6106b181610696565b81146106bc57600080fd5b50565b6000813590506106ce816106a8565b92915050565b6000602082840312156106ea576106e9610671565b5b60006106f8848285016106bf565b91505092915050565b61070a81610696565b82525050565b60006020820190506107256000830184610701565b92915050565b6107348161063d565b811461073f57600080fd5b50565b6000813590506107518161072b565b92915050565b60006020828403121561076d5761076c610671565b5b600061077b84828501610742565b91505092915050565b600082825260208201905092915050565b7f4f6e6c7920746865206f776e65722063616e20726573746f636b2e0000000000600082015250565b60006107cb601b83610784565b91506107d682610795565b602082019050919050565b600060208201905081810360008301526107fa816107be565b9050919050565b7f4e487b7100000000000000000000000000000000000000000000000000000000600052601160045260246000fd5b600061083b8261063d565b91506108468361063d565b9250827fffffffffffffffffffffffffffffffffffffffffffffffffffffffffffffffff0382111561087b5761087a610801565b5b828201905092915050565b60006108918261063d565b915061089c8361063d565b9250817fffffffffffffffffffffffffffffffffffffffffffffffffffffffffffffffff04831182151516156108d5576108d4610801565b5b828202905092915050565b7f596f75206d75737420706179206174206c6561737420302e303030303030303160008201527f204554482070657220646f6e7574000000000000000000000000000000000000602082015250565b600061093c602e83610784565b9150610947826108e0565b604082019050919050565b6000602082019050818103600083015261096b8161092f565b9050919050565b7f4e6f7420656e6f75676820646f6e75747320696e2073746f636b20746f20636f60008201527f6d706c6574652074686973207075726368617365000000000000000000000000602082015250565b60006109ce603483610784565b91506109d982610972565b604082019050919050565b600060208201905081810360008301526109fd816109c1565b9050919050565b6000610a0f8261063d565b9150610a1a8361063d565b925082821015610a2d57610a2c610801565b5b82820390509291505056fea2646970667358221220ac9176c7dcdbfd9c3cb980c1360eea81a41b43a5a0f8a27516268bdc6337521e64736f6c634300080b0033",
  "immutableReferences": {},
  "source": "// SPDX-License-Identifier: MIT\r\npragma solidity ^0.8.11;\r\n\r\ncontract koi {\r\n    // use for exclusive items function \r\n    struct ExclusiveItem {\r\n        uint256 price;\r\n        bool isAvailable;\r\n        address owner; // Add owner member to struct\r\n    }\r\n\r\n    mapping(uint256 => ExclusiveItem) private exclusiveItems;\r\n    uint256 public itemSold;\r\n\r\n    // minimum ether sent requirement\r\n    uint256 public mintRate = 0.00 ether; \r\n\r\n    // maximum supply\r\n    uint public maxSupply = 50; \r\n    // state varaible that updates in the database \r\n    uint public amountItem = 0;     // datatype: unsigned interger (always positive)\r\n    uint public limitedEditionSupply = 10; // Initialize the limited edition supply variable\r\n\r\n    // state variables\r\n    address public owner;\r\n    mapping (address => uint) public accBalances;\r\n    //---------------------------------------------------------------------------------------------\r\n    // set the initial balance to 5\r\n    constructor() {\r\n        owner = msg.sender;\r\n        accBalances[address(this)] = 5;\r\n    }\r\n    //---------------------------------------------------------------------------------------------\r\n    function initializeContract() public {\r\n        owner = msg.sender;\r\n        accBalances[address(this)] = 5;\r\n    }\r\n    //---------------------------------------------------------------------------------------------\r\n    function getKoiBalance() public view returns (uint) {\r\n        return accBalances[address(this)];\r\n    }\r\n    //---------------------------------------------------------------------------------------------\r\n    function restock(uint amount) public {\r\n        require(msg.sender == owner, \"Only the owner can restock.\");\r\n        accBalances[address(this)] += amount;\r\n    }\r\n    //---------------------------------------------------------------------------------------------\r\n    function purchase(uint amount) public payable {\r\n        require(msg.value >= amount * 0.00000001 ether, \"You must pay at least 0.00000001 ETH per donut\");\r\n        require(accBalances[address(this)] >= amount, \"Not enough donuts in stock to complete this purchase\");\r\n        accBalances[address(this)] -= amount;\r\n        accBalances[msg.sender] += amount;\r\n    }\r\n    //---------------------------------------------------------------------------------------------\r\n    // A function to check the balance of the contract\r\n    function getBalance() public view returns (uint256) {\r\n        return address(this).balance;\r\n    }   \r\n}",
  "sourcePath": "C:\\CSE426\\project_KOI\\koi-contract\\contracts\\koi.sol",
  "compiler": {
    "name": "solc",
    "version": "0.8.11+commit.d7f03943.Emscripten.clang"
  },
  "schemaVersion": "3.4.13",
  "updatedAt": "2023-05-08T23:21:04.488Z",
  "networkType": "ethereum",
  "devdoc": {
    "kind": "dev",
    "methods": {},
    "version": 1
  },
  "userdoc": {
    "kind": "user",
    "methods": {},
    "version": 1
  }
}